{
  "contractName": "PatentToken",
  "abi": [
    {
      "inputs": [],
      "stateMutability": "nonpayable",
      "type": "constructor"
    },
    {
      "anonymous": false,
      "inputs": [
        {
          "indexed": true,
          "internalType": "address",
          "name": "owner",
          "type": "address"
        },
        {
          "indexed": true,
          "internalType": "address",
          "name": "approved",
          "type": "address"
        },
        {
          "indexed": true,
          "internalType": "uint256",
          "name": "tokenId",
          "type": "uint256"
        }
      ],
      "name": "Approval",
      "type": "event"
    },
    {
      "anonymous": false,
      "inputs": [
        {
          "indexed": true,
          "internalType": "address",
          "name": "owner",
          "type": "address"
        },
        {
          "indexed": true,
          "internalType": "address",
          "name": "operator",
          "type": "address"
        },
        {
          "indexed": false,
          "internalType": "bool",
          "name": "approved",
          "type": "bool"
        }
      ],
      "name": "ApprovalForAll",
      "type": "event"
    },
    {
      "anonymous": false,
      "inputs": [
        {
          "indexed": true,
          "internalType": "address",
          "name": "from",
          "type": "address"
        },
        {
          "indexed": true,
          "internalType": "address",
          "name": "to",
          "type": "address"
        },
        {
          "indexed": true,
          "internalType": "uint256",
          "name": "tokenId",
          "type": "uint256"
        }
      ],
      "name": "Transfer",
      "type": "event"
    },
    {
      "inputs": [
        {
          "internalType": "address",
          "name": "to",
          "type": "address"
        },
        {
          "internalType": "uint256",
          "name": "tokenId",
          "type": "uint256"
        }
      ],
      "name": "approve",
      "outputs": [],
      "stateMutability": "nonpayable",
      "type": "function"
    },
    {
      "inputs": [
        {
          "internalType": "address",
          "name": "owner",
          "type": "address"
        }
      ],
      "name": "balanceOf",
      "outputs": [
        {
          "internalType": "uint256",
          "name": "",
          "type": "uint256"
        }
      ],
      "stateMutability": "view",
      "type": "function"
    },
    {
      "inputs": [
        {
          "internalType": "uint256",
          "name": "tokenId",
          "type": "uint256"
        }
      ],
      "name": "getApproved",
      "outputs": [
        {
          "internalType": "address",
          "name": "",
          "type": "address"
        }
      ],
      "stateMutability": "view",
      "type": "function"
    },
    {
      "inputs": [
        {
          "internalType": "address",
          "name": "owner",
          "type": "address"
        },
        {
          "internalType": "address",
          "name": "operator",
          "type": "address"
        }
      ],
      "name": "isApprovedForAll",
      "outputs": [
        {
          "internalType": "bool",
          "name": "",
          "type": "bool"
        }
      ],
      "stateMutability": "view",
      "type": "function"
    },
    {
      "inputs": [],
      "name": "name",
      "outputs": [
        {
          "internalType": "string",
          "name": "",
          "type": "string"
        }
      ],
      "stateMutability": "view",
      "type": "function"
    },
    {
      "inputs": [
        {
          "internalType": "uint256",
          "name": "tokenId",
          "type": "uint256"
        }
      ],
      "name": "ownerOf",
      "outputs": [
        {
          "internalType": "address",
          "name": "",
          "type": "address"
        }
      ],
      "stateMutability": "view",
      "type": "function"
    },
    {
      "inputs": [
        {
          "internalType": "uint256",
          "name": "",
          "type": "uint256"
        }
      ],
      "name": "patents",
      "outputs": [
        {
          "internalType": "string",
          "name": "title",
          "type": "string"
        },
        {
          "internalType": "string",
          "name": "patentNumber",
          "type": "string"
        },
        {
          "internalType": "string",
          "name": "patentHolder",
          "type": "string"
        },
        {
          "internalType": "string",
          "name": "dateGranted",
          "type": "string"
        }
      ],
      "stateMutability": "view",
      "type": "function"
    },
    {
      "inputs": [
        {
          "internalType": "address",
          "name": "from",
          "type": "address"
        },
        {
          "internalType": "address",
          "name": "to",
          "type": "address"
        },
        {
          "internalType": "uint256",
          "name": "tokenId",
          "type": "uint256"
        }
      ],
      "name": "safeTransferFrom",
      "outputs": [],
      "stateMutability": "nonpayable",
      "type": "function"
    },
    {
      "inputs": [
        {
          "internalType": "address",
          "name": "from",
          "type": "address"
        },
        {
          "internalType": "address",
          "name": "to",
          "type": "address"
        },
        {
          "internalType": "uint256",
          "name": "tokenId",
          "type": "uint256"
        },
        {
          "internalType": "bytes",
          "name": "data",
          "type": "bytes"
        }
      ],
      "name": "safeTransferFrom",
      "outputs": [],
      "stateMutability": "nonpayable",
      "type": "function"
    },
    {
      "inputs": [
        {
          "internalType": "address",
          "name": "operator",
          "type": "address"
        },
        {
          "internalType": "bool",
          "name": "approved",
          "type": "bool"
        }
      ],
      "name": "setApprovalForAll",
      "outputs": [],
      "stateMutability": "nonpayable",
      "type": "function"
    },
    {
      "inputs": [
        {
          "internalType": "bytes4",
          "name": "interfaceId",
          "type": "bytes4"
        }
      ],
      "name": "supportsInterface",
      "outputs": [
        {
          "internalType": "bool",
          "name": "",
          "type": "bool"
        }
      ],
      "stateMutability": "view",
      "type": "function"
    },
    {
      "inputs": [],
      "name": "symbol",
      "outputs": [
        {
          "internalType": "string",
          "name": "",
          "type": "string"
        }
      ],
      "stateMutability": "view",
      "type": "function"
    },
    {
      "inputs": [
        {
          "internalType": "uint256",
          "name": "tokenId",
          "type": "uint256"
        }
      ],
      "name": "tokenURI",
      "outputs": [
        {
          "internalType": "string",
          "name": "",
          "type": "string"
        }
      ],
      "stateMutability": "view",
      "type": "function"
    },
    {
      "inputs": [
        {
          "internalType": "address",
          "name": "from",
          "type": "address"
        },
        {
          "internalType": "address",
          "name": "to",
          "type": "address"
        },
        {
          "internalType": "uint256",
          "name": "tokenId",
          "type": "uint256"
        }
      ],
      "name": "transferFrom",
      "outputs": [],
      "stateMutability": "nonpayable",
      "type": "function"
    },
    {
      "inputs": [
        {
          "internalType": "address",
          "name": "to",
          "type": "address"
        },
        {
          "internalType": "string",
          "name": "title",
          "type": "string"
        },
        {
          "internalType": "string",
          "name": "patentNumber",
          "type": "string"
        },
        {
          "internalType": "string",
          "name": "patentHolder",
          "type": "string"
        },
        {
          "internalType": "string",
          "name": "dateGranted",
          "type": "string"
        }
      ],
      "name": "mintPatent",
      "outputs": [
        {
          "internalType": "uint256",
          "name": "",
          "type": "uint256"
        }
      ],
      "stateMutability": "nonpayable",
      "type": "function"
    },
    {
      "inputs": [
        {
          "internalType": "uint256",
          "name": "tokenId",
          "type": "uint256"
        }
      ],
      "name": "getPatentDetails",
      "outputs": [
        {
          "components": [
            {
              "internalType": "string",
              "name": "title",
              "type": "string"
            },
            {
              "internalType": "string",
              "name": "patentNumber",
              "type": "string"
            },
            {
              "internalType": "string",
              "name": "patentHolder",
              "type": "string"
            },
            {
              "internalType": "string",
              "name": "dateGranted",
              "type": "string"
            }
          ],
          "internalType": "struct PatentToken.Patent",
          "name": "",
          "type": "tuple"
        }
      ],
      "stateMutability": "view",
      "type": "function"
    }
  ],
  "bytecode": "0x60806040523480156200001157600080fd5b506040518060400160405280600b81526020017f506174656e74546f6b656e0000000000000000000000000000000000000000008152506040518060400160405280600281526020017f505400000000000000000000000000000000000000000000000000000000000081525081600090816200008f919062000324565b508060019081620000a1919062000324565b5050506200040b565b600081519050919050565b7f4e487b7100000000000000000000000000000000000000000000000000000000600052604160045260246000fd5b7f4e487b7100000000000000000000000000000000000000000000000000000000600052602260045260246000fd5b600060028204905060018216806200012c57607f821691505b602082108103620001425762000141620000e4565b5b50919050565b60008190508160005260206000209050919050565b60006020601f8301049050919050565b600082821b905092915050565b600060088302620001ac7fffffffffffffffffffffffffffffffffffffffffffffffffffffffffffffffff826200016d565b620001b886836200016d565b95508019841693508086168417925050509392505050565b6000819050919050565b6000819050919050565b600062000205620001ff620001f984620001d0565b620001da565b620001d0565b9050919050565b6000819050919050565b6200022183620001e4565b6200023962000230826200020c565b8484546200017a565b825550505050565b600090565b6200025062000241565b6200025d81848462000216565b505050565b5b8181101562000285576200027960008262000246565b60018101905062000263565b5050565b601f821115620002d4576200029e8162000148565b620002a9846200015d565b81016020851015620002b9578190505b620002d1620002c8856200015d565b83018262000262565b50505b505050565b600082821c905092915050565b6000620002f960001984600802620002d9565b1980831691505092915050565b6000620003148383620002e6565b9150826002028217905092915050565b6200032f82620000aa565b67ffffffffffffffff8111156200034b576200034a620000b5565b5b62000357825462000113565b6200036482828562000289565b600060209050601f8311600181146200039c576000841562000387578287015190505b62000393858262000306565b86555062000403565b601f198416620003ac8662000148565b60005b82811015620003d657848901518255600182019150602085019450602081019050620003af565b86831015620003f65784890151620003f2601f891682620002e6565b8355505b6001600288020188555050505b505050505050565b612ff9806200041b6000396000f3fe608060405234801561001057600080fd5b50600436106101005760003560e01c80636352211e11610097578063b88d4fde11610066578063b88d4fde146102d1578063c87b56dd146102ed578063e985e9c51461031d578063f422bc681461034d57610100565b80636352211e1461023757806370a082311461026757806395d89b4114610297578063a22cb465146102b557610100565b806323b872dd116100d357806323b872dd1461019f5780632485fa03146101bb57806342842e0e146101eb578063534988f61461020757610100565b806301ffc9a71461010557806306fdde0314610135578063081812fc14610153578063095ea7b314610183575b600080fd5b61011f600480360381019061011a9190611da6565b610380565b60405161012c9190611dee565b60405180910390f35b61013d610462565b60405161014a9190611e99565b60405180910390f35b61016d60048036038101906101689190611ef1565b6104f4565b60405161017a9190611f5f565b60405180910390f35b61019d60048036038101906101989190611fa6565b61053a565b005b6101b960048036038101906101b49190611fe6565b610651565b005b6101d560048036038101906101d09190611ef1565b6106b1565b6040516101e291906120fb565b60405180910390f35b61020560048036038101906102009190611fe6565b610926565b005b610221600480360381019061021c9190612252565b610946565b60405161022e919061234c565b60405180910390f35b610251600480360381019061024c9190611ef1565b610a06565b60405161025e9190611f5f565b60405180910390f35b610281600480360381019061027c9190612367565b610a8c565b60405161028e919061234c565b60405180910390f35b61029f610b43565b6040516102ac9190611e99565b60405180910390f35b6102cf60048036038101906102ca91906123c0565b610bd5565b005b6102eb60048036038101906102e691906124a1565b610beb565b005b61030760048036038101906103029190611ef1565b610c4d565b6040516103149190611e99565b60405180910390f35b61033760048036038101906103329190612524565b610cb5565b6040516103449190611dee565b60405180910390f35b61036760048036038101906103629190611ef1565b610d49565b6040516103779493929190612564565b60405180910390f35b60007f80ac58cd000000000000000000000000000000000000000000000000000000007bffffffffffffffffffffffffffffffffffffffffffffffffffffffff1916827bffffffffffffffffffffffffffffffffffffffffffffffffffffffff1916148061044b57507f5b5e139f000000000000000000000000000000000000000000000000000000007bffffffffffffffffffffffffffffffffffffffffffffffffffffffff1916827bffffffffffffffffffffffffffffffffffffffffffffffffffffffff1916145b8061045b575061045a82610f99565b5b9050919050565b606060008054610471906125f4565b80601f016020809104026020016040519081016040528092919081815260200182805461049d906125f4565b80156104ea5780601f106104bf576101008083540402835291602001916104ea565b820191906000526020600020905b8154815290600101906020018083116104cd57829003601f168201915b5050505050905090565b60006104ff82611003565b6004600083815260200190815260200160002060009054906101000a900473ffffffffffffffffffffffffffffffffffffffff169050919050565b600061054582610a06565b90508073ffffffffffffffffffffffffffffffffffffffff168373ffffffffffffffffffffffffffffffffffffffff16036105b5576040517f08c379a00000000000000000000000000000000000000000000000000000000081526004016105ac90612697565b60405180910390fd5b8073ffffffffffffffffffffffffffffffffffffffff166105d461104e565b73ffffffffffffffffffffffffffffffffffffffff1614806106035750610602816105fd61104e565b610cb5565b5b610642576040517f08c379a000000000000000000000000000000000000000000000000000000000815260040161063990612729565b60405180910390fd5b61064c8383611056565b505050565b61066261065c61104e565b8261110f565b6106a1576040517f08c379a0000000000000000000000000000000000000000000000000000000008152600401610698906127bb565b60405180910390fd5b6106ac8383836111a4565b505050565b6106b9611d12565b600760008381526020019081526020016000206040518060800160405290816000820180546106e7906125f4565b80601f0160208091040260200160405190810160405280929190818152602001828054610713906125f4565b80156107605780601f1061073557610100808354040283529160200191610760565b820191906000526020600020905b81548152906001019060200180831161074357829003601f168201915b50505050508152602001600182018054610779906125f4565b80601f01602080910402602001604051908101604052809291908181526020018280546107a5906125f4565b80156107f25780601f106107c7576101008083540402835291602001916107f2565b820191906000526020600020905b8154815290600101906020018083116107d557829003601f168201915b5050505050815260200160028201805461080b906125f4565b80601f0160208091040260200160405190810160405280929190818152602001828054610837906125f4565b80156108845780601f1061085957610100808354040283529160200191610884565b820191906000526020600020905b81548152906001019060200180831161086757829003601f168201915b5050505050815260200160038201805461089d906125f4565b80601f01602080910402602001604051908101604052809291908181526020018280546108c9906125f4565b80156109165780601f106108eb57610100808354040283529160200191610916565b820191906000526020600020905b8154815290600101906020018083116108f957829003601f168201915b5050505050815250509050919050565b61094183838360405180602001604052806000815250610beb565b505050565b6000610952600661149d565b600061095e60066114b3565b905061096a87826114c1565b6040518060800160405280878152602001868152602001858152602001848152506007600083815260200190815260200160002060008201518160000190816109b39190612987565b5060208201518160010190816109c99190612987565b5060408201518160020190816109df9190612987565b5060608201518160030190816109f59190612987565b509050508091505095945050505050565b600080610a12836116de565b9050600073ffffffffffffffffffffffffffffffffffffffff168173ffffffffffffffffffffffffffffffffffffffff1603610a83576040517f08c379a0000000000000000000000000000000000000000000000000000000008152600401610a7a90612aa5565b60405180910390fd5b80915050919050565b60008073ffffffffffffffffffffffffffffffffffffffff168273ffffffffffffffffffffffffffffffffffffffff1603610afc576040517f08c379a0000000000000000000000000000000000000000000000000000000008152600401610af390612b37565b60405180910390fd5b600360008373ffffffffffffffffffffffffffffffffffffffff1673ffffffffffffffffffffffffffffffffffffffff168152602001908152602001600020549050919050565b606060018054610b52906125f4565b80601f0160208091040260200160405190810160405280929190818152602001828054610b7e906125f4565b8015610bcb5780601f10610ba057610100808354040283529160200191610bcb565b820191906000526020600020905b815481529060010190602001808311610bae57829003601f168201915b5050505050905090565b610be7610be061104e565b838361171b565b5050565b610bfc610bf661104e565b8361110f565b610c3b576040517f08c379a0000000000000000000000000000000000000000000000000000000008152600401610c32906127bb565b60405180910390fd5b610c4784848484611887565b50505050565b6060610c5882611003565b6000610c626118e3565b90506000815111610c825760405180602001604052806000815250610cad565b80610c8c846118fa565b604051602001610c9d929190612b93565b6040516020818303038152906040525b915050919050565b6000600560008473ffffffffffffffffffffffffffffffffffffffff1673ffffffffffffffffffffffffffffffffffffffff16815260200190815260200160002060008373ffffffffffffffffffffffffffffffffffffffff1673ffffffffffffffffffffffffffffffffffffffff16815260200190815260200160002060009054906101000a900460ff16905092915050565b6007602052806000526040600020600091509050806000018054610d6c906125f4565b80601f0160208091040260200160405190810160405280929190818152602001828054610d98906125f4565b8015610de55780601f10610dba57610100808354040283529160200191610de5565b820191906000526020600020905b815481529060010190602001808311610dc857829003601f168201915b505050505090806001018054610dfa906125f4565b80601f0160208091040260200160405190810160405280929190818152602001828054610e26906125f4565b8015610e735780601f10610e4857610100808354040283529160200191610e73565b820191906000526020600020905b815481529060010190602001808311610e5657829003601f168201915b505050505090806002018054610e88906125f4565b80601f0160208091040260200160405190810160405280929190818152602001828054610eb4906125f4565b8015610f015780601f10610ed657610100808354040283529160200191610f01565b820191906000526020600020905b815481529060010190602001808311610ee457829003601f168201915b505050505090806003018054610f16906125f4565b80601f0160208091040260200160405190810160405280929190818152602001828054610f42906125f4565b8015610f8f5780601f10610f6457610100808354040283529160200191610f8f565b820191906000526020600020905b815481529060010190602001808311610f7257829003601f168201915b5050505050905084565b60007f01ffc9a7000000000000000000000000000000000000000000000000000000007bffffffffffffffffffffffffffffffffffffffffffffffffffffffff1916827bffffffffffffffffffffffffffffffffffffffffffffffffffffffff1916149050919050565b61100c816119c8565b61104b576040517f08c379a000000000000000000000000000000000000000000000000000000000815260040161104290612aa5565b60405180910390fd5b50565b600033905090565b816004600083815260200190815260200160002060006101000a81548173ffffffffffffffffffffffffffffffffffffffff021916908373ffffffffffffffffffffffffffffffffffffffff160217905550808273ffffffffffffffffffffffffffffffffffffffff166110c983610a06565b73ffffffffffffffffffffffffffffffffffffffff167f8c5be1e5ebec7d5bd14f71427d1e84f3dd0314c0f7b2291e5b200ac8c7c3b92560405160405180910390a45050565b60008061111b83610a06565b90508073ffffffffffffffffffffffffffffffffffffffff168473ffffffffffffffffffffffffffffffffffffffff16148061115d575061115c8185610cb5565b5b8061119b57508373ffffffffffffffffffffffffffffffffffffffff16611183846104f4565b73ffffffffffffffffffffffffffffffffffffffff16145b91505092915050565b8273ffffffffffffffffffffffffffffffffffffffff166111c482610a06565b73ffffffffffffffffffffffffffffffffffffffff161461121a576040517f08c379a000000000000000000000000000000000000000000000000000000000815260040161121190612c29565b60405180910390fd5b600073ffffffffffffffffffffffffffffffffffffffff168273ffffffffffffffffffffffffffffffffffffffff1603611289576040517f08c379a000000000000000000000000000000000000000000000000000000000815260040161128090612cbb565b60405180910390fd5b6112968383836001611a09565b8273ffffffffffffffffffffffffffffffffffffffff166112b682610a06565b73ffffffffffffffffffffffffffffffffffffffff161461130c576040517f08c379a000000000000000000000000000000000000000000000000000000000815260040161130390612c29565b60405180910390fd5b6004600082815260200190815260200160002060006101000a81549073ffffffffffffffffffffffffffffffffffffffff02191690556001600360008573ffffffffffffffffffffffffffffffffffffffff1673ffffffffffffffffffffffffffffffffffffffff168152602001908152602001600020600082825403925050819055506001600360008473ffffffffffffffffffffffffffffffffffffffff1673ffffffffffffffffffffffffffffffffffffffff16815260200190815260200160002060008282540192505081905550816002600083815260200190815260200160002060006101000a81548173ffffffffffffffffffffffffffffffffffffffff021916908373ffffffffffffffffffffffffffffffffffffffff160217905550808273ffffffffffffffffffffffffffffffffffffffff168473ffffffffffffffffffffffffffffffffffffffff167fddf252ad1be2c89b69c2b068fc378daa952ba7f163c4a11628f55a4df523b3ef60405160405180910390a46114988383836001611a0f565b505050565b6001816000016000828254019250508190555050565b600081600001549050919050565b600073ffffffffffffffffffffffffffffffffffffffff168273ffffffffffffffffffffffffffffffffffffffff1603611530576040517f08c379a000000000000000000000000000000000000000000000000000000000815260040161152790612d27565b60405180910390fd5b611539816119c8565b15611579576040517f08c379a000000000000000000000000000000000000000000000000000000000815260040161157090612d93565b60405180910390fd5b611587600083836001611a09565b611590816119c8565b156115d0576040517f08c379a00000000000000000000000000000000000000000000000000000000081526004016115c790612d93565b60405180910390fd5b6001600360008473ffffffffffffffffffffffffffffffffffffffff1673ffffffffffffffffffffffffffffffffffffffff16815260200190815260200160002060008282540192505081905550816002600083815260200190815260200160002060006101000a81548173ffffffffffffffffffffffffffffffffffffffff021916908373ffffffffffffffffffffffffffffffffffffffff160217905550808273ffffffffffffffffffffffffffffffffffffffff16600073ffffffffffffffffffffffffffffffffffffffff167fddf252ad1be2c89b69c2b068fc378daa952ba7f163c4a11628f55a4df523b3ef60405160405180910390a46116da600083836001611a0f565b5050565b60006002600083815260200190815260200160002060009054906101000a900473ffffffffffffffffffffffffffffffffffffffff169050919050565b8173ffffffffffffffffffffffffffffffffffffffff168373ffffffffffffffffffffffffffffffffffffffff1603611789576040517f08c379a000000000000000000000000000000000000000000000000000000000815260040161178090612dff565b60405180910390fd5b80600560008573ffffffffffffffffffffffffffffffffffffffff1673ffffffffffffffffffffffffffffffffffffffff16815260200190815260200160002060008473ffffffffffffffffffffffffffffffffffffffff1673ffffffffffffffffffffffffffffffffffffffff16815260200190815260200160002060006101000a81548160ff0219169083151502179055508173ffffffffffffffffffffffffffffffffffffffff168373ffffffffffffffffffffffffffffffffffffffff167f17307eab39ab6107e8899845ad3d59bd9653f200f220920489ca2b5937696c318360405161187a9190611dee565b60405180910390a3505050565b6118928484846111a4565b61189e84848484611a15565b6118dd576040517f08c379a00000000000000000000000000000000000000000000000000000000081526004016118d490612e91565b60405180910390fd5b50505050565b606060405180602001604052806000815250905090565b60606000600161190984611b9c565b01905060008167ffffffffffffffff81111561192857611927612127565b5b6040519080825280601f01601f19166020018201604052801561195a5781602001600182028036833780820191505090505b509050600082602001820190505b6001156119bd578080600190039150507f3031323334353637383961626364656600000000000000000000000000000000600a86061a8153600a85816119b1576119b0612eb1565b5b04945060008503611968575b819350505050919050565b60008073ffffffffffffffffffffffffffffffffffffffff166119ea836116de565b73ffffffffffffffffffffffffffffffffffffffff1614159050919050565b50505050565b50505050565b6000611a368473ffffffffffffffffffffffffffffffffffffffff16611cef565b15611b8f578373ffffffffffffffffffffffffffffffffffffffff1663150b7a02611a5f61104e565b8786866040518563ffffffff1660e01b8152600401611a819493929190612f35565b6020604051808303816000875af1925050508015611abd57506040513d601f19601f82011682018060405250810190611aba9190612f96565b60015b611b3f573d8060008114611aed576040519150601f19603f3d011682016040523d82523d6000602084013e611af2565b606091505b506000815103611b37576040517f08c379a0000000000000000000000000000000000000000000000000000000008152600401611b2e90612e91565b60405180910390fd5b805181602001fd5b63150b7a0260e01b7bffffffffffffffffffffffffffffffffffffffffffffffffffffffff1916817bffffffffffffffffffffffffffffffffffffffffffffffffffffffff191614915050611b94565b600190505b949350505050565b600080600090507a184f03e93ff9f4daa797ed6e38ed64bf6a1f0100000000000000008310611bfa577a184f03e93ff9f4daa797ed6e38ed64bf6a1f0100000000000000008381611bf057611bef612eb1565b5b0492506040810190505b6d04ee2d6d415b85acef81000000008310611c37576d04ee2d6d415b85acef81000000008381611c2d57611c2c612eb1565b5b0492506020810190505b662386f26fc100008310611c6657662386f26fc100008381611c5c57611c5b612eb1565b5b0492506010810190505b6305f5e1008310611c8f576305f5e1008381611c8557611c84612eb1565b5b0492506008810190505b6127108310611cb4576127108381611caa57611ca9612eb1565b5b0492506004810190505b60648310611cd75760648381611ccd57611ccc612eb1565b5b0492506002810190505b600a8310611ce6576001810190505b80915050919050565b6000808273ffffffffffffffffffffffffffffffffffffffff163b119050919050565b6040518060800160405280606081526020016060815260200160608152602001606081525090565b6000604051905090565b600080fd5b600080fd5b60007fffffffff0000000000000000000000000000000000000000000000000000000082169050919050565b611d8381611d4e565b8114611d8e57600080fd5b50565b600081359050611da081611d7a565b92915050565b600060208284031215611dbc57611dbb611d44565b5b6000611dca84828501611d91565b91505092915050565b60008115159050919050565b611de881611dd3565b82525050565b6000602082019050611e036000830184611ddf565b92915050565b600081519050919050565b600082825260208201905092915050565b60005b83811015611e43578082015181840152602081019050611e28565b60008484015250505050565b6000601f19601f8301169050919050565b6000611e6b82611e09565b611e758185611e14565b9350611e85818560208601611e25565b611e8e81611e4f565b840191505092915050565b60006020820190508181036000830152611eb38184611e60565b905092915050565b6000819050919050565b611ece81611ebb565b8114611ed957600080fd5b50565b600081359050611eeb81611ec5565b92915050565b600060208284031215611f0757611f06611d44565b5b6000611f1584828501611edc565b91505092915050565b600073ffffffffffffffffffffffffffffffffffffffff82169050919050565b6000611f4982611f1e565b9050919050565b611f5981611f3e565b82525050565b6000602082019050611f746000830184611f50565b92915050565b611f8381611f3e565b8114611f8e57600080fd5b50565b600081359050611fa081611f7a565b92915050565b60008060408385031215611fbd57611fbc611d44565b5b6000611fcb85828601611f91565b9250506020611fdc85828601611edc565b9150509250929050565b600080600060608486031215611fff57611ffe611d44565b5b600061200d86828701611f91565b935050602061201e86828701611f91565b925050604061202f86828701611edc565b9150509250925092565b600082825260208201905092915050565b600061205582611e09565b61205f8185612039565b935061206f818560208601611e25565b61207881611e4f565b840191505092915050565b600060808301600083015184820360008601526120a0828261204a565b915050602083015184820360208601526120ba828261204a565b915050604083015184820360408601526120d4828261204a565b915050606083015184820360608601526120ee828261204a565b9150508091505092915050565b600060208201905081810360008301526121158184612083565b905092915050565b600080fd5b600080fd5b7f4e487b7100000000000000000000000000000000000000000000000000000000600052604160045260246000fd5b61215f82611e4f565b810181811067ffffffffffffffff8211171561217e5761217d612127565b5b80604052505050565b6000612191611d3a565b905061219d8282612156565b919050565b600067ffffffffffffffff8211156121bd576121bc612127565b5b6121c682611e4f565b9050602081019050919050565b82818337600083830152505050565b60006121f56121f0846121a2565b612187565b90508281526020810184848401111561221157612210612122565b5b61221c8482856121d3565b509392505050565b600082601f8301126122395761223861211d565b5b81356122498482602086016121e2565b91505092915050565b600080600080600060a0868803121561226e5761226d611d44565b5b600061227c88828901611f91565b955050602086013567ffffffffffffffff81111561229d5761229c611d49565b5b6122a988828901612224565b945050604086013567ffffffffffffffff8111156122ca576122c9611d49565b5b6122d688828901612224565b935050606086013567ffffffffffffffff8111156122f7576122f6611d49565b5b61230388828901612224565b925050608086013567ffffffffffffffff81111561232457612323611d49565b5b61233088828901612224565b9150509295509295909350565b61234681611ebb565b82525050565b6000602082019050612361600083018461233d565b92915050565b60006020828403121561237d5761237c611d44565b5b600061238b84828501611f91565b91505092915050565b61239d81611dd3565b81146123a857600080fd5b50565b6000813590506123ba81612394565b92915050565b600080604083850312156123d7576123d6611d44565b5b60006123e585828601611f91565b92505060206123f6858286016123ab565b9150509250929050565b600067ffffffffffffffff82111561241b5761241a612127565b5b61242482611e4f565b9050602081019050919050565b600061244461243f84612400565b612187565b9050828152602081018484840111156124605761245f612122565b5b61246b8482856121d3565b509392505050565b600082601f8301126124885761248761211d565b5b8135612498848260208601612431565b91505092915050565b600080600080608085870312156124bb576124ba611d44565b5b60006124c987828801611f91565b94505060206124da87828801611f91565b93505060406124eb87828801611edc565b925050606085013567ffffffffffffffff81111561250c5761250b611d49565b5b61251887828801612473565b91505092959194509250565b6000806040838503121561253b5761253a611d44565b5b600061254985828601611f91565b925050602061255a85828601611f91565b9150509250929050565b6000608082019050818103600083015261257e8187611e60565b905081810360208301526125928186611e60565b905081810360408301526125a68185611e60565b905081810360608301526125ba8184611e60565b905095945050505050565b7f4e487b7100000000000000000000000000000000000000000000000000000000600052602260045260246000fd5b6000600282049050600182168061260c57607f821691505b60208210810361261f5761261e6125c5565b5b50919050565b7f4552433732313a20617070726f76616c20746f2063757272656e74206f776e6560008201527f7200000000000000000000000000000000000000000000000000000000000000602082015250565b6000612681602183611e14565b915061268c82612625565b604082019050919050565b600060208201905081810360008301526126b081612674565b9050919050565b7f4552433732313a20617070726f76652063616c6c6572206973206e6f7420746f60008201527f6b656e206f776e6572206f7220617070726f76656420666f7220616c6c000000602082015250565b6000612713603d83611e14565b915061271e826126b7565b604082019050919050565b6000602082019050818103600083015261274281612706565b9050919050565b7f4552433732313a2063616c6c6572206973206e6f7420746f6b656e206f776e6560008201527f72206f7220617070726f76656400000000000000000000000000000000000000602082015250565b60006127a5602d83611e14565b91506127b082612749565b604082019050919050565b600060208201905081810360008301526127d481612798565b9050919050565b60008190508160005260206000209050919050565b60006020601f8301049050919050565b600082821b905092915050565b60006008830261283d7fffffffffffffffffffffffffffffffffffffffffffffffffffffffffffffffff82612800565b6128478683612800565b95508019841693508086168417925050509392505050565b6000819050919050565b600061288461287f61287a84611ebb565b61285f565b611ebb565b9050919050565b6000819050919050565b61289e83612869565b6128b26128aa8261288b565b84845461280d565b825550505050565b600090565b6128c76128ba565b6128d2818484612895565b505050565b5b818110156128f6576128eb6000826128bf565b6001810190506128d8565b5050565b601f82111561293b5761290c816127db565b612915846127f0565b81016020851015612924578190505b612938612930856127f0565b8301826128d7565b50505b505050565b600082821c905092915050565b600061295e60001984600802612940565b1980831691505092915050565b6000612977838361294d565b9150826002028217905092915050565b61299082611e09565b67ffffffffffffffff8111156129a9576129a8612127565b5b6129b382546125f4565b6129be8282856128fa565b600060209050601f8311600181146129f157600084156129df578287015190505b6129e9858261296b565b865550612a51565b601f1984166129ff866127db565b60005b82811015612a2757848901518255600182019150602085019450602081019050612a02565b86831015612a445784890151612a40601f89168261294d565b8355505b6001600288020188555050505b505050505050565b7f4552433732313a20696e76616c696420746f6b656e2049440000000000000000600082015250565b6000612a8f601883611e14565b9150612a9a82612a59565b602082019050919050565b60006020820190508181036000830152612abe81612a82565b9050919050565b7f4552433732313a2061646472657373207a65726f206973206e6f74206120766160008201527f6c6964206f776e65720000000000000000000000000000000000000000000000602082015250565b6000612b21602983611e14565b9150612b2c82612ac5565b604082019050919050565b60006020820190508181036000830152612b5081612b14565b9050919050565b600081905092915050565b6000612b6d82611e09565b612b778185612b57565b9350612b87818560208601611e25565b80840191505092915050565b6000612b9f8285612b62565b9150612bab8284612b62565b91508190509392505050565b7f4552433732313a207472616e736665722066726f6d20696e636f72726563742060008201527f6f776e6572000000000000000000000000000000000000000000000000000000602082015250565b6000612c13602583611e14565b9150612c1e82612bb7565b604082019050919050565b60006020820190508181036000830152612c4281612c06565b9050919050565b7f4552433732313a207472616e7366657220746f20746865207a65726f2061646460008201527f7265737300000000000000000000000000000000000000000000000000000000602082015250565b6000612ca5602483611e14565b9150612cb082612c49565b604082019050919050565b60006020820190508181036000830152612cd481612c98565b9050919050565b7f4552433732313a206d696e7420746f20746865207a65726f2061646472657373600082015250565b6000612d11602083611e14565b9150612d1c82612cdb565b602082019050919050565b60006020820190508181036000830152612d4081612d04565b9050919050565b7f4552433732313a20746f6b656e20616c7265616479206d696e74656400000000600082015250565b6000612d7d601c83611e14565b9150612d8882612d47565b602082019050919050565b60006020820190508181036000830152612dac81612d70565b9050919050565b7f4552433732313a20617070726f766520746f2063616c6c657200000000000000600082015250565b6000612de9601983611e14565b9150612df482612db3565b602082019050919050565b60006020820190508181036000830152612e1881612ddc565b9050919050565b7f4552433732313a207472616e7366657220746f206e6f6e20455243373231526560008201527f63656976657220696d706c656d656e7465720000000000000000000000000000602082015250565b6000612e7b603283611e14565b9150612e8682612e1f565b604082019050919050565b60006020820190508181036000830152612eaa81612e6e565b9050919050565b7f4e487b7100000000000000000000000000000000000000000000000000000000600052601260045260246000fd5b600081519050919050565b600082825260208201905092915050565b6000612f0782612ee0565b612f118185612eeb565b9350612f21818560208601611e25565b612f2a81611e4f565b840191505092915050565b6000608082019050612f4a6000830187611f50565b612f576020830186611f50565b612f64604083018561233d565b8181036060830152612f768184612efc565b905095945050505050565b600081519050612f9081611d7a565b92915050565b600060208284031215612fac57612fab611d44565b5b6000612fba84828501612f81565b9150509291505056fea26469706673582212200b24d8fb6f9ac0bd0c067d5d92ee61955f4d452ec2cd55aef0a44d76409abba664736f6c63430008130033",
  "immutableReferences": {},
  "source": "// SPDX-License-Identifier: UNLICENSED\n\npragma solidity ^0.8.0;\n\nimport \"@openzeppelin/contracts/token/ERC721/ERC721.sol\";\nimport \"@openzeppelin/contracts/utils/Counters.sol\";\n\ncontract PatentToken is ERC721 {\n    using Counters for Counters.Counter;\n    Counters.Counter private _tokenIds;\n\n    struct Patent {\n        string title;\n        string patentNumber;\n        string patentHolder;\n        string dateGranted;\n    }\n\n    mapping(uint256 => Patent) public patents;\n\n    constructor() ERC721(\"PatentToken\", \"PT\") {}\n\n    function mintPatent(\n        address to,\n        string memory title,\n        string memory patentNumber,\n        string memory patentHolder,\n        string memory dateGranted\n    ) public returns (uint256) {\n        _tokenIds.increment();\n\n        uint256 newItemId = _tokenIds.current();\n        _mint(to, newItemId);\n\n        patents[newItemId] = Patent(title, patentNumber, patentHolder, dateGranted);\n\n        return newItemId;\n    }\n\n    function getPatentDetails(uint256 tokenId) public view returns (Patent memory) {\n        return patents[tokenId];\n    }\n}\n",
  "sourcePath": "/Users/takagikouhei/Desktop/Solidity/PatentTokenProject/contracts/PatentToken.sol",
  "compiler": {
    "name": "solc",
    "version": "0.8.19+commit.7dd6d404.Emscripten.clang"
  },
  "schemaVersion": "3.4.13",
  "updatedAt": "2023-04-21T01:58:50.272Z",
  "devdoc": {
    "events": {
      "Approval(address,address,uint256)": {
        "details": "Emitted when `owner` enables `approved` to manage the `tokenId` token."
      },
      "ApprovalForAll(address,address,bool)": {
        "details": "Emitted when `owner` enables or disables (`approved`) `operator` to manage all of its assets."
      },
      "Transfer(address,address,uint256)": {
        "details": "Emitted when `tokenId` token is transferred from `from` to `to`."
      }
    },
    "kind": "dev",
    "methods": {
      "approve(address,uint256)": {
        "details": "See {IERC721-approve}."
      },
      "balanceOf(address)": {
        "details": "See {IERC721-balanceOf}."
      },
      "getApproved(uint256)": {
        "details": "See {IERC721-getApproved}."
      },
      "isApprovedForAll(address,address)": {
        "details": "See {IERC721-isApprovedForAll}."
      },
      "name()": {
        "details": "See {IERC721Metadata-name}."
      },
      "ownerOf(uint256)": {
        "details": "See {IERC721-ownerOf}."
      },
      "safeTransferFrom(address,address,uint256)": {
        "details": "See {IERC721-safeTransferFrom}."
      },
      "safeTransferFrom(address,address,uint256,bytes)": {
        "details": "See {IERC721-safeTransferFrom}."
      },
      "setApprovalForAll(address,bool)": {
        "details": "See {IERC721-setApprovalForAll}."
      },
      "supportsInterface(bytes4)": {
        "details": "See {IERC165-supportsInterface}."
      },
      "symbol()": {
        "details": "See {IERC721Metadata-symbol}."
      },
      "tokenURI(uint256)": {
        "details": "See {IERC721Metadata-tokenURI}."
      },
      "transferFrom(address,address,uint256)": {
        "details": "See {IERC721-transferFrom}."
      }
    },
    "version": 1
  },
  "userdoc": {
    "kind": "user",
    "methods": {},
    "version": 1
  }
}